:020000040800F2
:1000000008040020350700084D0400084F040008CC
:1000100053040008570400085B04000800000000B7
:100020000000000000000000000000006104000863
:100030005F04000800000000630400086504000875
:1000400067040008690400086B0400086D040008D8
:100050006F040008710400087304000875040008A8
:1000600077040008790400087B0400084F070008A3
:100070004F0700084F0700084F0700084F07000808
:100080004F0700084F0700087D0400084F070008CD
:100090004F0700084F0700084F0700087F040008BB
:1000A0008104000883040008850400088704000810
:1000B000890400088B0400088D0400088F040008E0
:1000C00091040008930400089504000897040008B0
:1000D000990400089B0400089D0400089F04000880
:1000E000A1040008A3040008A5040008A704000850
:1000F000A9040008AB040008AD040008AF04000820
:10010000B1040008B3040008B5040008B7040008EF
:10011000B9040008BB040008BD040008BF040008BF
:10012000C1040008C3040008C5040008C70400088F
:10013000DFF80CD000F010FB004800475901000820
:1001400008040020704700BF104A00FB02F100E0E5
:10015000491E0029FCD1704710B5FFF7F3FF00F0EE
:100160002AF900F047F90021084600F04BF908A0F1
:1001700000F004FB0021012000F044F908A000F089
:10018000FDFA02E06420FFF7DEFFFBE74019010003
:1001900053686172696E67205465636820696E00F8
:1001A0003D3E2041524D2056696574204E616D00E0
:1001B00000BFA04A00FB02F100E0491E0029FCD16B
:1001C000704770B504464FF480619B4800F00AFA0E
:1001D000994800F003FA4FF6F071084040EA141510
:1001E0002946954800F002FA4FF48061924800F0E9
:1001F000FBF90520FFF7A7FF4FF480618E4800F060
:10020000F1F98D4800F0E6F94FF6F071084004F07E
:100210000F0140EA01052946874800F0E7F94FF44D
:100220008061854800F0E0F90120FFF78CFF70BD88
:1002300038B504460121102000F0DAF90F20ADF89E
:10024000000003208DF802001CB904208DF8030083
:1002500004E0012C02D110208DF803006946764895
:1002600000F032F938BD70B50020FFF7E1FF4FF420
:100270008051714800F0B8F94FF400616E4800F009
:10028000B1F90120FFF75FFF4FF480616A4800F089
:10029000A9F9694800F09EF900F00F044FF480615D
:1002A000654800F0A1F90120FFF74DFF4FF4806190
:1002B000614800F097F9604800F08CF900F00F05F4
:1002C0004FF480615C4800F08FF944EA251070BD5E
:1002D00008B50121102000F08BF94FF48050ADF8E3
:1002E000000010208DF8030003208DF802006946FD
:1002F000514800F0E9F84FF40060ADF8000010201C
:100300008DF8030069464C4800F0DEF84FF4806039
:10031000ADF8000010208DF803006946464800F053
:10032000D3F80121102000F063F90F20ADF8000090
:1003300004208DF8030003208DF8020069463E4832
:1003400000F0C2F808BD10B500BFFFF78CFF10F039
:10035000800FFAD110BD10B50446FFF7F4FF4FF43B
:100360008051354800F040F94FF40061324800F008
:100370003BF90120FFF75CFF2046FFF722FF00203A
:10038000FFF756FF10BD10B50446FFF7DCFF4FF432
:100390008051294800F026F94FF40061264800F00A
:1003A00023F90120FFF744FF2046FFF70AFF002052
:1003B000FFF73EFF10BD10B5FFF78AFF3320FFF7B0
:1003C000CAFF0A20FFF7BFFE3220FFF7C4FF0A2052
:1003D000FFF7B9FE2820FFF7BEFF0120FFF7BBFFA4
:1003E0000620FFF7B8FF0C20FFF7B5FF0220FFF74C
:1003F000B2FF10BD10B50120FFF7ADFF0520FFF7DC
:10040000D7FE10BD70B504460D4614B1012C06D1BF
:1004100001E0EEB205E005F14000C6B201E0EEB247
:1004200000BF00BF46F08000FFF795FF0520FFF7F3
:10043000BFFE70BD401901000010014070B50446B8
:100440000D46E0B2FFF79FFF204670BD704700BF2A
:10045000FEE700BFFEE700BFFEE700BFFEE7704714
:1004600070477047704770477047704770477047D4
:1004700070477047704770477047704770477047C4
:1004800070477047704770477047704770477047B4
:1004900070477047704770477047704770477047A4
:1004A0007047704770477047704770477047704794
:1004B0007047704770477047704770477047704784
:1004C0007047704770477047F0B500220023002442
:1004D00000250026002791F803C00CF00F0291F8C8
:1004E00003C01CF0100F03D091F802C04CEA0202C6
:1004F000B1F800C01CF0FF0F31D0066800242BE0DB
:100500004FF0010C0CFA04F5B1F800C00CEA050339
:10051000AB4220D1A5004FF00F0C0CFA05F7BE43FB
:1005200002FA05FC4CEA060691F803C0BCF1280F5C
:1005300006D14FF0010C0CFA04FCC0F814C00AE01C
:1005400091F803C0BCF1480F05D14FF0010C0CFA33
:1005500004FCC0F810C0641C082CD1D30660B1F8AC
:1005600000C0BCF1FF0F34DD466800242EE004F12A
:10057000080C4FF0010E0EFA0CF5B1F800C00CEAB1
:100580000503AB4221D1A5004FF00F0C0CFA05F783
:10059000BE4302FA05FC4CEA060691F803C0BCF122
:1005A000280F05D104F1080C0EFA0CFEC0F814E077
:1005B00091F803C0BCF1480F07D104F1080C4FF0CB
:1005C000010E0EFA0CFEC0F810E0641C082CCED30D
:1005D0004660F0BD0146886880B270470146C86831
:1005E00080B270470161704741617047C1607047D8
:1005F00029B1064A92690243044B9A6104E0034A16
:1006000092698243014B9A617047000000100240DA
:1006100000200021434A126842F48032414B1A60A4
:1006200000BF404A126802F40031401C11B9B0F515
:10063000A06FF6D13B4A126812F4003F01D00121AD
:1006400000E00021012943D1374A126842F010022C
:10065000354B1A601A46126822F003021A601A46D5
:10066000126842F002021A602E4A52682D4B5A60FC
:100670001A4652685A601A46526842F480625A60BA
:100680001A46526822F47C125A601A46526842F4A2
:10069000E8125A601A46126842F080721A6000BF6F
:1006A000204A126812F0007FFAD01E4A526822F0E7
:1006B00003021C4B5A601A46526842F002025A600A
:1006C00000BF184A526802F00C02082AF9D101E072
:1006D00000BFFEE7704710B5FFF79AFF10BD10B5D9
:1006E0001048006840F001000E4908600846406864
:1006F0000E4908400B494860084600680C4908400C
:10070000084908600846006820F480200860084610
:10071000406820F4FE0048604FF41F008860FFF737
:10072000DAFF10BD00100240002002400000FFF878
:10073000FFFFF6FE0648804706480047FEE7FEE753
:10074000FEE7FEE7FEE7FEE7FEE7FEE7FEE7FEE781
:10075000DF06000831010008064C074D06E0E0689E
:1007600040F0010394E8070098471034AC42F6D3F8
:10077000FFF7E2FCCC070008EC070008014A024939
:1007800000F013B83D0400080000002002E008C893
:10079000121F08C1002AFAD170477047002001E0FB
:1007A00001C1121F002AFBD170472DE9F041044618
:1007B0000F461646002503E03946B0476D1C641C01
:1007C00020780028F8D12846BDE8F081EC07000821
:1007D00000000020040000008C070008F00700085B
:1007E00004000020040400009C0700080000000032
:0400000508000131BD
:00000001FF
