:020000040800F2
:100000001804002035010008E3020008DB020008A4
:10001000DF0200087D010008010400080000000064
:10002000000000000000000000000000E7020008DF
:100030008101000800000000E5020008A503000897
:100040004F0100084F0100084F0100084F01000850
:100050004F0100084F0100084F0100084F01000840
:100060004F0100084F0100084F0100084F01000830
:100070004F0100084F0100084F0100084F01000820
:100080004F0100084F0100084F0100080000000068
:100090000000000000000000000000004F01000808
:1000A0004F0100084F0100084F0100084F010008F0
:1000B0004F0100084F0100084F0100084F010008E0
:1000C0004F0100084F0100084F0100084F010008D0
:1000D0004F0100084F0100084F0100084F010008C0
:1000E0004F0100084F0100084F0100080000000008
:1000F0000000000000000000000000000000000000
:1001000000000000000000000000000000000000EF
:1001100000000000000000004F0100084F0100082F
:10012000DFF80CD000F018F800480047250400085C
:10013000180400200648804706480047FEE7FEE70F
:10014000FEE7FEE7FEE7FEE7FEE7FEE7FEE7FEE787
:10015000A903000821010008064C074D06E0E068ED
:1001600040F0010394E8070098471034AC42F6D3FE
:10017000FFF7DAFF040500082405000800BFFEE7CA
:10018000704700000149C86070470000002002402D
:1001900030B5054604244FF4302000F08BF80446B7
:1001A000042C19D10D48006940F002000B49086188
:1001B00008464561006940F0400008614FF4302076
:1001C00000F078F80446052C06D00448006941F692
:1001D000FD71084001490861204630BD0020024001
:1001E00004200B49C96811F0010F01D001200EE075
:1001F0000749C96811F0040F01D0022007E0044943
:10020000C96811F0100F01D0032000E004207047EE
:10021000002002400348006940F080000149086165
:10022000704700000020024078B506460D460424C1
:1002300000200090E00200F03DF80446042C28D194
:100240001548006940F00100134908613580E0025B
:1002500000F030F80446042C12D1B01C0090280C99
:1002600000990880E00200F025F80446052C10D023
:100270000948006941F6FE7108400749086108E035
:10028000052C06D00448006941F6FE710840024979
:100290000861204678BD0000002002400248034962
:1002A00048600348486070472301674500200240CA
:1002B000AB89EFCD00B502460423FFF791FF03465B
:1002C00003E0FFF78DFF0346521E012B01D1002AE8
:1002D000F7D102B90523184600BD00BFFEE700BFF5
:1002E000FEE770477047704710B500F001F810BD89
:1002F0000CB50020019000902948006840F480303F
:100300002749086000BF2648006800F400300090CC
:100310000198401C0190009818B90198B0F5A06FA1
:10032000F1D11F48006810F4003F02D00120009076
:1003300001E0002000900098012830D11848406862
:100340001749486008464068486008464068486069
:100350000846406820F47C1048600846406840F435
:10036000981048600846006840F08070086000BF40
:100370000B48006810F0007FFAD00948406820F070
:100380000300074948600846406840F002004860A2
:1003900000BF0348406800F00C000828F9D10CBDEC
:1003A000001002407047000010B51248006840F08D
:1003B000010010490860084640680F4908400D498F
:1003C0004860084600680D4908400A490860084628
:1003D000006820F4802008600846406820F4FE0091
:1003E00048604FF41F0088600020C862FFF77CFF60
:1003F00010BD0000001002400000FFF8FFFFF6FEF5
:1004000000BFFEE702E008C8121F08C1002AFAD1A7
:1004100070477047002001E001C1121F002AFBD184
:1004200070470000FFF73AFF10202E490860342083
:10043000FFF7A8FE00202C4908600EE02A49096851
:100440002A4A531403FB0120FFF7A2FE2849087033
:1004500025480068401C2449086023480068214959
:100460000968884203D2224800780428E6D01F4851
:10047000204908600CE0204801781E480068FFF71A
:10048000D3FE1B4908701B480068001D194908600D
:10049000184800681949884203D215480078042892
:1004A000E9D0FFF7B7FE1148124908600EE0114885
:1004B0000068006810490978884202D0002010497D
:1004C00008700C480068001D0A4908600948006867
:1004D0000A49884203D20A4800780028E7D100BFC1
:1004E000FEE700000C000020000000200080000853
:1004F00010000020040000200800002000C00008B8
:100500001100002024050008000000201400000055
:10051000040400083805000814000020040400004A
:100520001404000800000000000000003200000079
:080530000000000004010000BE
:0400000508000121CD
:00000001FF
